{
  "contractName": "Exchange",
  "abi": [
    {
      "inputs": [],
      "stateMutability": "nonpayable",
      "type": "constructor"
    },
    {
      "inputs": [
        {
          "internalType": "address",
          "name": "_reserve",
          "type": "address"
        },
        {
          "internalType": "address",
          "name": "_token",
          "type": "address"
        }
      ],
      "name": "addReserve",
      "outputs": [],
      "stateMutability": "nonpayable",
      "type": "function"
    },
    {
      "inputs": [
        {
          "internalType": "address",
          "name": "srcToken",
          "type": "address"
        },
        {
          "internalType": "address",
          "name": "destToken",
          "type": "address"
        },
        {
          "internalType": "uint256",
          "name": "_amount",
          "type": "uint256"
        }
      ],
      "name": "getExchangeRate",
      "outputs": [
        {
          "internalType": "uint256",
          "name": "",
          "type": "uint256"
        }
      ],
      "stateMutability": "view",
      "type": "function"
    },
    {
      "inputs": [
        {
          "internalType": "address",
          "name": "srcToken",
          "type": "address"
        },
        {
          "internalType": "address",
          "name": "destToken",
          "type": "address"
        },
        {
          "internalType": "uint256",
          "name": "_amount",
          "type": "uint256"
        }
      ],
      "name": "exchange",
      "outputs": [],
      "stateMutability": "payable",
      "type": "function"
    }
  ],
  "bytecode": "0x608060405273eeeeeeeeeeeeeeeeeeeeeeeeeeeeeeeeeeeeeeee6000806101000a81548173ffffffffffffffffffffffffffffffffffffffff021916908373ffffffffffffffffffffffffffffffffffffffff16021790555030600160006101000a81548173ffffffffffffffffffffffffffffffffffffffff021916908373ffffffffffffffffffffffffffffffffffffffff160217905550670de0b6b3a76400006005553480156100b157600080fd5b506001600460008060009054906101000a900473ffffffffffffffffffffffffffffffffffffffff1673ffffffffffffffffffffffffffffffffffffffff1673ffffffffffffffffffffffffffffffffffffffff16815260200190815260200160002060006101000a81548160ff021916908315150217905550610edd8061013a6000396000f3fe6080604052600436106100345760003560e01c806319732621146100395780636b441d8a14610062578063969e37561461009f575b600080fd5b34801561004557600080fd5b50610060600480360381019061005b9190610c16565b6100bb565b005b34801561006e57600080fd5b5061008960048036038101906100849190610c8c565b6101f2565b6040516100969190610cee565b60405180910390f35b6100b960048036038101906100b49190610c8c565b6105f6565b005b600460008273ffffffffffffffffffffffffffffffffffffffff1673ffffffffffffffffffffffffffffffffffffffff16815260200190815260200160002060009054906101000a900460ff161561011257600080fd5b600082905080600360008473ffffffffffffffffffffffffffffffffffffffff1673ffffffffffffffffffffffffffffffffffffffff16815260200190815260200160002060006101000a81548173ffffffffffffffffffffffffffffffffffffffff021916908373ffffffffffffffffffffffffffffffffffffffff1602179055506001600460008473ffffffffffffffffffffffffffffffffffffffff1673ffffffffffffffffffffffffffffffffffffffff16815260200190815260200160002060006101000a81548160ff021916908315150217905550505050565b600080821161020057600080fd5b600460008573ffffffffffffffffffffffffffffffffffffffff1673ffffffffffffffffffffffffffffffffffffffff16815260200190815260200160002060009054906101000a900460ff1680156102a25750600460008473ffffffffffffffffffffffffffffffffffffffff1673ffffffffffffffffffffffffffffffffffffffff16815260200190815260200160002060009054906101000a900460ff165b6102ab57600080fd5b60008054906101000a900473ffffffffffffffffffffffffffffffffffffffff1673ffffffffffffffffffffffffffffffffffffffff168473ffffffffffffffffffffffffffffffffffffffff1614156103df57600360008473ffffffffffffffffffffffffffffffffffffffff1673ffffffffffffffffffffffffffffffffffffffff16815260200190815260200160002060009054906101000a900473ffffffffffffffffffffffffffffffffffffffff1673ffffffffffffffffffffffffffffffffffffffff1663e9739db7836040518263ffffffff1660e01b81526004016103979190610cee565b602060405180830381865afa1580156103b4573d6000803e3d6000fd5b505050506040513d601f19601f820116820180604052508101906103d89190610d1e565b90506105ef565b60008054906101000a900473ffffffffffffffffffffffffffffffffffffffff1673ffffffffffffffffffffffffffffffffffffffff168373ffffffffffffffffffffffffffffffffffffffff16141561051357600360008573ffffffffffffffffffffffffffffffffffffffff1673ffffffffffffffffffffffffffffffffffffffff16815260200190815260200160002060009054906101000a900473ffffffffffffffffffffffffffffffffffffffff1673ffffffffffffffffffffffffffffffffffffffff16630859e844836040518263ffffffff1660e01b81526004016104cb9190610cee565b602060405180830381865afa1580156104e8573d6000803e3d6000fd5b505050506040513d601f19601f8201168201806040525081019061050c9190610d1e565b90506105ef565b600360008473ffffffffffffffffffffffffffffffffffffffff1673ffffffffffffffffffffffffffffffffffffffff16815260200190815260200160002060009054906101000a900473ffffffffffffffffffffffffffffffffffffffff1673ffffffffffffffffffffffffffffffffffffffff1663e9739db7836040518263ffffffff1660e01b81526004016105ab9190610cee565b602060405180830381865afa1580156105c8573d6000803e3d6000fd5b505050506040513d601f19601f820116820180604052508101906105ec9190610d1e565b90505b9392505050565b6000811161060357600080fd5b600460008473ffffffffffffffffffffffffffffffffffffffff1673ffffffffffffffffffffffffffffffffffffffff16815260200190815260200160002060009054906101000a900460ff1680156106a55750600460008373ffffffffffffffffffffffffffffffffffffffff1673ffffffffffffffffffffffffffffffffffffffff16815260200190815260200160002060009054906101000a900460ff165b6106ae57600080fd5b60008054906101000a900473ffffffffffffffffffffffffffffffffffffffff1673ffffffffffffffffffffffffffffffffffffffff168373ffffffffffffffffffffffffffffffffffffffff1614156107f55780341461070e57600080fd5b600360008373ffffffffffffffffffffffffffffffffffffffff1673ffffffffffffffffffffffffffffffffffffffff16815260200190815260200160002060009054906101000a900473ffffffffffffffffffffffffffffffffffffffff1673ffffffffffffffffffffffffffffffffffffffff1663e8a2aad082600184336040518563ffffffff1660e01b81526004016107ac93929190610d75565b60206040518083038185885af11580156107ca573d6000803e3d6000fd5b50505050506040513d601f19601f820116820180604052508101906107ef9190610d1e565b50610bae565b60008054906101000a900473ffffffffffffffffffffffffffffffffffffffff1673ffffffffffffffffffffffffffffffffffffffff168273ffffffffffffffffffffffffffffffffffffffff16141561092f57600360008473ffffffffffffffffffffffffffffffffffffffff1673ffffffffffffffffffffffffffffffffffffffff16815260200190815260200160002060009054906101000a900473ffffffffffffffffffffffffffffffffffffffff1673ffffffffffffffffffffffffffffffffffffffff1663e8a2aad0600083336040518463ffffffff1660e01b81526004016108e693929190610d75565b6020604051808303816000875af1158015610905573d6000803e3d6000fd5b505050506040513d601f19601f820116820180604052508101906109299190610d1e565b50610bad565b82600260006101000a81548173ffffffffffffffffffffffffffffffffffffffff021916908373ffffffffffffffffffffffffffffffffffffffff160217905550600260009054906101000a900473ffffffffffffffffffffffffffffffffffffffff1673ffffffffffffffffffffffffffffffffffffffff166323b872dd33600360008773ffffffffffffffffffffffffffffffffffffffff1673ffffffffffffffffffffffffffffffffffffffff16815260200190815260200160002060009054906101000a900473ffffffffffffffffffffffffffffffffffffffff1673ffffffffffffffffffffffffffffffffffffffff166315a5d9d86040518163ffffffff1660e01b8152600401602060405180830381865afa158015610a59573d6000803e3d6000fd5b505050506040513d601f19601f82011682018060405250810190610a7d9190610dc1565b846040518463ffffffff1660e01b8152600401610a9c93929190610dee565b6020604051808303816000875af1158015610abb573d6000803e3d6000fd5b505050506040513d601f19601f82011682018060405250810190610adf9190610e51565b50600360008373ffffffffffffffffffffffffffffffffffffffff1673ffffffffffffffffffffffffffffffffffffffff16815260200190815260200160002060009054906101000a900473ffffffffffffffffffffffffffffffffffffffff1673ffffffffffffffffffffffffffffffffffffffff16633d0bfd5682336040518363ffffffff1660e01b8152600401610b7a929190610e7e565b600060405180830381600087803b158015610b9457600080fd5b505af1158015610ba8573d6000803e3d6000fd5b505050505b5b505050565b600080fd5b600073ffffffffffffffffffffffffffffffffffffffff82169050919050565b6000610be382610bb8565b9050919050565b610bf381610bd8565b8114610bfe57600080fd5b50565b600081359050610c1081610bea565b92915050565b60008060408385031215610c2d57610c2c610bb3565b5b6000610c3b85828601610c01565b9250506020610c4c85828601610c01565b9150509250929050565b6000819050919050565b610c6981610c56565b8114610c7457600080fd5b50565b600081359050610c8681610c60565b92915050565b600080600060608486031215610ca557610ca4610bb3565b5b6000610cb386828701610c01565b9350506020610cc486828701610c01565b9250506040610cd586828701610c77565b9150509250925092565b610ce881610c56565b82525050565b6000602082019050610d036000830184610cdf565b92915050565b600081519050610d1881610c60565b92915050565b600060208284031215610d3457610d33610bb3565b5b6000610d4284828501610d09565b91505092915050565b60008115159050919050565b610d6081610d4b565b82525050565b610d6f81610bd8565b82525050565b6000606082019050610d8a6000830186610d57565b610d976020830185610cdf565b610da46040830184610d66565b949350505050565b600081519050610dbb81610bea565b92915050565b600060208284031215610dd757610dd6610bb3565b5b6000610de584828501610dac565b91505092915050565b6000606082019050610e036000830186610d66565b610e106020830185610d66565b610e1d6040830184610cdf565b949350505050565b610e2e81610d4b565b8114610e3957600080fd5b50565b600081519050610e4b81610e25565b92915050565b600060208284031215610e6757610e66610bb3565b5b6000610e7584828501610e3c565b91505092915050565b6000604082019050610e936000830185610cdf565b610ea06020830184610d66565b939250505056fea2646970667358221220a0018b89f64d303e92dc10a56e468413c90c635a2beef74390eb1812525a4c7964736f6c634300080a0033",
  "immutableReferences": {},
  "source": "// SPDX-License-Identifier: MIT\npragma solidity 0.8.10;\nimport \"./Reserve.sol\";\nimport \"./TestToken.sol\";\n\ncontract Exchange {\n    \n    address nativeToken = 0xEeeeeEeeeEeEeeEeEeEeeEEEeeeeEeeeeeeeEEeE;\n    address contractAddr = address(this);\n    TestToken token;\n    mapping (address => Reserve) reserves;\n    mapping (address => bool) reserved;\n    uint fixedUnit = 10**18;\n\n    constructor(){\n        reserved[nativeToken] = true;\n    }\n\n    function addReserve(address _reserve, address _token) public {\n        \n        require(!reserved[_token]);\n        Reserve reserve = Reserve(_reserve);\n        reserves[_token] = reserve;\n        reserved[_token] = true;\n        \n    }\n   \n    function getExchangeRate(address srcToken, address destToken, uint _amount)public view returns(uint) {\n        require(_amount > 0);\n        require(reserved[srcToken] && reserved[destToken]);\n        if(srcToken == nativeToken) {\n            return reserves[destToken].getTokenRate(_amount);\n        } else if (destToken == nativeToken) {\n            return reserves[srcToken].getEthRate(_amount);\n        } else {\n            return reserves[destToken].getTokenRate(_amount);\n        }\n    }\n\n    function exchange(address srcToken , address destToken, uint _amount) payable public {\n        require(_amount > 0);\n        require(reserved[srcToken] && reserved[destToken]);\n        \n        if(srcToken == nativeToken) {\n            require(msg.value == _amount);\n            reserves[destToken].exchange{value: _amount}(true, _amount, msg.sender);\n             \n        } else if (destToken == nativeToken) {\n            reserves[srcToken].exchange(false, _amount, msg.sender);    \n        } else {\n            token = TestToken(srcToken);\n            token.transferFrom(msg.sender, reserves[srcToken].contractAddr(), _amount);\n            reserves[destToken].tokenSwap(_amount, msg.sender);\n        }\n    }\n}",
  "sourcePath": "/home/hussain/projects/swaptokens/contracts/Exchange.sol",
  "compiler": {
    "name": "solc",
    "version": "0.8.10+commit.fc410830.Emscripten.clang"
  },
  "schemaVersion": "3.4.3",
  "updatedAt": "2022-01-22T00:12:44.440Z",
  "devdoc": {
    "kind": "dev",
    "methods": {},
    "version": 1
  },
  "userdoc": {
    "kind": "user",
    "methods": {},
    "version": 1
  }
}