{
  "contractName": "Exchange",
  "abi": [
    {
      "inputs": [],
      "stateMutability": "nonpayable",
      "type": "constructor"
    },
    {
      "inputs": [
        {
          "internalType": "address",
          "name": "_reserve",
          "type": "address"
        },
        {
          "internalType": "address",
          "name": "token",
          "type": "address"
        }
      ],
      "name": "addReserve",
      "outputs": [],
      "stateMutability": "nonpayable",
      "type": "function"
    },
    {
      "inputs": [
        {
          "internalType": "address",
          "name": "srcToken",
          "type": "address"
        },
        {
          "internalType": "address",
          "name": "destToken",
          "type": "address"
        },
        {
          "internalType": "uint256",
          "name": "_amount",
          "type": "uint256"
        }
      ],
      "name": "getExchangeRate",
      "outputs": [
        {
          "internalType": "uint256",
          "name": "",
          "type": "uint256"
        }
      ],
      "stateMutability": "view",
      "type": "function"
    },
    {
      "inputs": [
        {
          "internalType": "address",
          "name": "srcToken",
          "type": "address"
        },
        {
          "internalType": "address",
          "name": "destToken",
          "type": "address"
        },
        {
          "internalType": "uint256",
          "name": "_amount",
          "type": "uint256"
        }
      ],
      "name": "exchange",
      "outputs": [],
      "stateMutability": "payable",
      "type": "function"
    }
  ],
  "bytecode": "0x608060405273eeeeeeeeeeeeeeeeeeeeeeeeeeeeeeeeeeeeeeee6000806101000a81548173ffffffffffffffffffffffffffffffffffffffff021916908373ffffffffffffffffffffffffffffffffffffffff16021790555030600160006101000a81548173ffffffffffffffffffffffffffffffffffffffff021916908373ffffffffffffffffffffffffffffffffffffffff160217905550670de0b6b3a76400006004553480156100b157600080fd5b506001600360008060009054906101000a900473ffffffffffffffffffffffffffffffffffffffff1673ffffffffffffffffffffffffffffffffffffffff1673ffffffffffffffffffffffffffffffffffffffff16815260200190815260200160002060006101000a81548160ff0219169083151502179055506115748061013a6000396000f3fe6080604052600436106100345760003560e01c806319732621146100395780636b441d8a14610062578063969e37561461009f575b600080fd5b34801561004557600080fd5b50610060600480360381019061005b9190611151565b6100bb565b005b34801561006e57600080fd5b50610089600480360381019061008491906111c7565b6101f2565b6040516100969190611229565b60405180910390f35b6100b960048036038101906100b491906111c7565b61073d565b005b600360008273ffffffffffffffffffffffffffffffffffffffff1673ffffffffffffffffffffffffffffffffffffffff16815260200190815260200160002060009054906101000a900460ff161561011257600080fd5b600082905080600260008473ffffffffffffffffffffffffffffffffffffffff1673ffffffffffffffffffffffffffffffffffffffff16815260200190815260200160002060006101000a81548173ffffffffffffffffffffffffffffffffffffffff021916908373ffffffffffffffffffffffffffffffffffffffff1602179055506001600360008473ffffffffffffffffffffffffffffffffffffffff1673ffffffffffffffffffffffffffffffffffffffff16815260200190815260200160002060006101000a81548160ff021916908315150217905550505050565b600080821161020057600080fd5b600360008573ffffffffffffffffffffffffffffffffffffffff1673ffffffffffffffffffffffffffffffffffffffff16815260200190815260200160002060009054906101000a900460ff1680156102a25750600360008473ffffffffffffffffffffffffffffffffffffffff1673ffffffffffffffffffffffffffffffffffffffff16815260200190815260200160002060009054906101000a900460ff165b6102ab57600080fd5b60008054906101000a900473ffffffffffffffffffffffffffffffffffffffff1673ffffffffffffffffffffffffffffffffffffffff168473ffffffffffffffffffffffffffffffffffffffff1614156103e257600260008473ffffffffffffffffffffffffffffffffffffffff1673ffffffffffffffffffffffffffffffffffffffff16815260200190815260200160002060009054906101000a900473ffffffffffffffffffffffffffffffffffffffff1673ffffffffffffffffffffffffffffffffffffffff166377ed0ad66001846040518363ffffffff1660e01b815260040161039a92919061125f565b602060405180830381865afa1580156103b7573d6000803e3d6000fd5b505050506040513d601f19601f820116820180604052508101906103db919061129d565b9050610736565b60008054906101000a900473ffffffffffffffffffffffffffffffffffffffff1673ffffffffffffffffffffffffffffffffffffffff168373ffffffffffffffffffffffffffffffffffffffff16141561051957600260008573ffffffffffffffffffffffffffffffffffffffff1673ffffffffffffffffffffffffffffffffffffffff16815260200190815260200160002060009054906101000a900473ffffffffffffffffffffffffffffffffffffffff1673ffffffffffffffffffffffffffffffffffffffff166377ed0ad66000846040518363ffffffff1660e01b81526004016104d192919061125f565b602060405180830381865afa1580156104ee573d6000803e3d6000fd5b505050506040513d601f19601f82011682018060405250810190610512919061129d565b9050610736565b6000600260008673ffffffffffffffffffffffffffffffffffffffff1673ffffffffffffffffffffffffffffffffffffffff16815260200190815260200160002060009054906101000a900473ffffffffffffffffffffffffffffffffffffffff1673ffffffffffffffffffffffffffffffffffffffff166377ed0ad66000856040518363ffffffff1660e01b81526004016105b692919061125f565b602060405180830381865afa1580156105d3573d6000803e3d6000fd5b505050506040513d601f19601f820116820180604052508101906105f7919061129d565b90506000600454828561060a91906112f9565b6106149190611382565b90506000600260008773ffffffffffffffffffffffffffffffffffffffff1673ffffffffffffffffffffffffffffffffffffffff16815260200190815260200160002060009054906101000a900473ffffffffffffffffffffffffffffffffffffffff1673ffffffffffffffffffffffffffffffffffffffff166377ed0ad66001846040518363ffffffff1660e01b81526004016106b392919061125f565b602060405180830381865afa1580156106d0573d6000803e3d6000fd5b505050506040513d601f19601f820116820180604052508101906106f4919061129d565b90506000811180156107065750600083115b1561072e57806004548461071a91906112f9565b6107249190611382565b9350505050610736565b600093505050505b9392505050565b6000811161074a57600080fd5b600360008473ffffffffffffffffffffffffffffffffffffffff1673ffffffffffffffffffffffffffffffffffffffff16815260200190815260200160002060009054906101000a900460ff1680156107ec5750600360008373ffffffffffffffffffffffffffffffffffffffff1673ffffffffffffffffffffffffffffffffffffffff16815260200190815260200160002060009054906101000a900460ff165b6107f557600080fd5b60008054906101000a900473ffffffffffffffffffffffffffffffffffffffff1673ffffffffffffffffffffffffffffffffffffffff168373ffffffffffffffffffffffffffffffffffffffff16141561093b5780341461085557600080fd5b600260008373ffffffffffffffffffffffffffffffffffffffff1673ffffffffffffffffffffffffffffffffffffffff16815260200190815260200160002060009054906101000a900473ffffffffffffffffffffffffffffffffffffffff1673ffffffffffffffffffffffffffffffffffffffff1663e8a2aad0600183336040518463ffffffff1660e01b81526004016108f2939291906113d4565b6020604051808303816000875af1158015610911573d6000803e3d6000fd5b505050506040513d601f19601f82011682018060405250810190610935919061129d565b506110e9565b60008054906101000a900473ffffffffffffffffffffffffffffffffffffffff1673ffffffffffffffffffffffffffffffffffffffff168273ffffffffffffffffffffffffffffffffffffffff161415610cba576000839050818173ffffffffffffffffffffffffffffffffffffffff1663dd62ed3e33600160009054906101000a900473ffffffffffffffffffffffffffffffffffffffff166040518363ffffffff1660e01b81526004016109f292919061141a565b602060405180830381865afa158015610a0f573d6000803e3d6000fd5b505050506040513d601f19601f82011682018060405250810190610a33919061129d565b14610a3d57600080fd5b8073ffffffffffffffffffffffffffffffffffffffff166323b872dd33600160009054906101000a900473ffffffffffffffffffffffffffffffffffffffff16856040518463ffffffff1660e01b8152600401610a9c93929190611443565b6020604051808303816000875af1158015610abb573d6000803e3d6000fd5b505050506040513d601f19601f82011682018060405250810190610adf91906114a6565b506000600260008673ffffffffffffffffffffffffffffffffffffffff1673ffffffffffffffffffffffffffffffffffffffff16815260200190815260200160002060009054906101000a900473ffffffffffffffffffffffffffffffffffffffff1690508173ffffffffffffffffffffffffffffffffffffffff1663095ea7b38273ffffffffffffffffffffffffffffffffffffffff166315a5d9d86040518163ffffffff1660e01b8152600401602060405180830381865afa158015610bab573d6000803e3d6000fd5b505050506040513d601f19601f82011682018060405250810190610bcf91906114e8565b856040518363ffffffff1660e01b8152600401610bed929190611515565b6020604051808303816000875af1158015610c0c573d6000803e3d6000fd5b505050506040513d601f19601f82011682018060405250810190610c3091906114a6565b508073ffffffffffffffffffffffffffffffffffffffff1663e8a2aad0600085336040518463ffffffff1660e01b8152600401610c6f939291906113d4565b6020604051808303816000875af1158015610c8e573d6000803e3d6000fd5b505050506040513d601f19601f82011682018060405250810190610cb2919061129d565b5050506110e8565b6000839050818173ffffffffffffffffffffffffffffffffffffffff1663dd62ed3e33600160009054906101000a900473ffffffffffffffffffffffffffffffffffffffff166040518363ffffffff1660e01b8152600401610d1d92919061141a565b602060405180830381865afa158015610d3a573d6000803e3d6000fd5b505050506040513d601f19601f82011682018060405250810190610d5e919061129d565b14610d6857600080fd5b8073ffffffffffffffffffffffffffffffffffffffff166323b872dd33600160009054906101000a900473ffffffffffffffffffffffffffffffffffffffff16856040518463ffffffff1660e01b8152600401610dc793929190611443565b6020604051808303816000875af1158015610de6573d6000803e3d6000fd5b505050506040513d601f19601f82011682018060405250810190610e0a91906114a6565b506000600260008673ffffffffffffffffffffffffffffffffffffffff1673ffffffffffffffffffffffffffffffffffffffff16815260200190815260200160002060009054906101000a900473ffffffffffffffffffffffffffffffffffffffff1690508173ffffffffffffffffffffffffffffffffffffffff1663095ea7b38273ffffffffffffffffffffffffffffffffffffffff166315a5d9d86040518163ffffffff1660e01b8152600401602060405180830381865afa158015610ed6573d6000803e3d6000fd5b505050506040513d601f19601f82011682018060405250810190610efa91906114e8565b856040518363ffffffff1660e01b8152600401610f18929190611515565b6020604051808303816000875af1158015610f37573d6000803e3d6000fd5b505050506040513d601f19601f82011682018060405250810190610f5b91906114a6565b5060008173ffffffffffffffffffffffffffffffffffffffff1663e8a2aad0600086600160009054906101000a900473ffffffffffffffffffffffffffffffffffffffff166040518463ffffffff1660e01b8152600401610fbe939291906113d4565b6020604051808303816000875af1158015610fdd573d6000803e3d6000fd5b505050506040513d601f19601f82011682018060405250810190611001919061129d565b9050600260008673ffffffffffffffffffffffffffffffffffffffff1673ffffffffffffffffffffffffffffffffffffffff16815260200190815260200160002060009054906101000a900473ffffffffffffffffffffffffffffffffffffffff1673ffffffffffffffffffffffffffffffffffffffff1663e8a2aad0600183336040518463ffffffff1660e01b81526004016110a0939291906113d4565b6020604051808303816000875af11580156110bf573d6000803e3d6000fd5b505050506040513d601f19601f820116820180604052508101906110e3919061129d565b505050505b5b505050565b600080fd5b600073ffffffffffffffffffffffffffffffffffffffff82169050919050565b600061111e826110f3565b9050919050565b61112e81611113565b811461113957600080fd5b50565b60008135905061114b81611125565b92915050565b60008060408385031215611168576111676110ee565b5b60006111768582860161113c565b92505060206111878582860161113c565b9150509250929050565b6000819050919050565b6111a481611191565b81146111af57600080fd5b50565b6000813590506111c18161119b565b92915050565b6000806000606084860312156111e0576111df6110ee565b5b60006111ee8682870161113c565b93505060206111ff8682870161113c565b9250506040611210868287016111b2565b9150509250925092565b61122381611191565b82525050565b600060208201905061123e600083018461121a565b92915050565b60008115159050919050565b61125981611244565b82525050565b60006040820190506112746000830185611250565b611281602083018461121a565b9392505050565b6000815190506112978161119b565b92915050565b6000602082840312156112b3576112b26110ee565b5b60006112c184828501611288565b91505092915050565b7f4e487b7100000000000000000000000000000000000000000000000000000000600052601160045260246000fd5b600061130482611191565b915061130f83611191565b9250817fffffffffffffffffffffffffffffffffffffffffffffffffffffffffffffffff0483118215151615611348576113476112ca565b5b828202905092915050565b7f4e487b7100000000000000000000000000000000000000000000000000000000600052601260045260246000fd5b600061138d82611191565b915061139883611191565b9250826113a8576113a7611353565b5b828204905092915050565b60006113be826110f3565b9050919050565b6113ce816113b3565b82525050565b60006060820190506113e96000830186611250565b6113f6602083018561121a565b61140360408301846113c5565b949350505050565b61141481611113565b82525050565b600060408201905061142f600083018561140b565b61143c602083018461140b565b9392505050565b6000606082019050611458600083018661140b565b611465602083018561140b565b611472604083018461121a565b949350505050565b61148381611244565b811461148e57600080fd5b50565b6000815190506114a08161147a565b92915050565b6000602082840312156114bc576114bb6110ee565b5b60006114ca84828501611491565b91505092915050565b6000815190506114e281611125565b92915050565b6000602082840312156114fe576114fd6110ee565b5b600061150c848285016114d3565b91505092915050565b600060408201905061152a600083018561140b565b611537602083018461121a565b939250505056fea26469706673582212201c4bde71c01b248cf309be1a2c5b4faa709820a40265a5163f9ff3c457bf9c6164736f6c634300080a0033",
  "immutableReferences": {},
  "source": "// SPDX-License-Identifier: MIT\npragma solidity 0.8.10;\nimport './Reserve.sol';\n\ncontract Exchange {\n    \n    address nativeToken = 0xEeeeeEeeeEeEeeEeEeEeeEEEeeeeEeeeeeeeEEeE;\n    address contractAddr = address(this);\n    mapping (address => Reserve) reserves;\n    mapping (address => bool) reserved;\n    uint fixedUnit = 10**18;\n\n    constructor(){\n        reserved[nativeToken] = true;\n    }\n\n\n    function addReserve(address _reserve, address token) public {\n        \n        require(!reserved[token]);\n        Reserve reserve = Reserve(_reserve);\n        reserves[token] = reserve;\n        reserved[token] = true;\n        \n    }\n\n    function getExchangeRate(address srcToken, address destToken, uint _amount) public view returns (uint) {\n        require(_amount > 0);\n        require(reserved[srcToken] && reserved[destToken]);\n        if(srcToken == nativeToken) {\n            return reserves[destToken].getExchangeRate(true, _amount);\n        } else if (destToken == nativeToken) {\n            return reserves[srcToken].getExchangeRate(false, _amount);\n        } else {\n            uint sellRate4srcToken = reserves[srcToken].getExchangeRate(false, _amount);\n            uint srcToken2ETH = _amount * sellRate4srcToken / fixedUnit;\n            uint buyRate4destToken = reserves[destToken].getExchangeRate(true, srcToken2ETH);\n            \n            if(buyRate4destToken > 0 && sellRate4srcToken > 0)\n                return sellRate4srcToken * fixedUnit/ buyRate4destToken;\n            return 0;\n        }\n    }\n\n    function exchange(address srcToken , address destToken, uint _amount) payable public {\n        require(_amount > 0);\n        require(reserved[srcToken] && reserved[destToken]);\n        \n        if(srcToken == nativeToken) {\n            \n            require(msg.value == _amount);\n            reserves[destToken].exchange(true, _amount, payable(msg.sender));\n             \n        } else if (destToken == nativeToken) {\n            \n            IERC20 token = IERC20(srcToken);\n            require( token.allowance( msg.sender, contractAddr ) == _amount );\n            token.transferFrom( msg.sender, contractAddr, _amount );\n            \n            Reserve srcReserve = reserves[srcToken];\n            token.approve( srcReserve.contractAddr(), _amount );\n            \n            srcReserve.exchange( false, _amount, payable(msg.sender) );\n            \n        } else {\n            // phase 1, sell token\n            IERC20 token = IERC20(srcToken);\n            require( token.allowance( msg.sender, contractAddr ) == _amount );\n            token.transferFrom( msg.sender, contractAddr, _amount );\n            \n            Reserve srcReserve = reserves[srcToken];\n            token.approve( srcReserve.contractAddr(), _amount );\n            \n            uint ETHreceived = srcReserve.exchange( false, _amount, payable(contractAddr) );\n            \n            // phase 2, buy destToken\n            \n            reserves[destToken].exchange(true, ETHreceived, payable(msg.sender));\n\n        }\n    }\n}",
  "sourcePath": "/home/hussain/projects/swaptokens/contracts/Exchange.sol",
  "compiler": {
    "name": "solc",
    "version": "0.8.10+commit.fc410830.Emscripten.clang"
  },
  "schemaVersion": "3.4.3",
  "updatedAt": "2022-01-17T17:27:16.698Z",
  "devdoc": {
    "kind": "dev",
    "methods": {},
    "version": 1
  },
  "userdoc": {
    "kind": "user",
    "methods": {},
    "version": 1
  }
}