{
  "contractName": "Reserve",
  "abi": [
    {
      "inputs": [
        {
          "internalType": "address",
          "name": "_token",
          "type": "address"
        }
      ],
      "stateMutability": "nonpayable",
      "type": "constructor"
    },
    {
      "inputs": [],
      "name": "contractAddr",
      "outputs": [
        {
          "internalType": "address",
          "name": "",
          "type": "address"
        }
      ],
      "stateMutability": "view",
      "type": "function"
    },
    {
      "inputs": [
        {
          "internalType": "uint256",
          "name": "_buyRate",
          "type": "uint256"
        },
        {
          "internalType": "uint256",
          "name": "_sellRate",
          "type": "uint256"
        }
      ],
      "name": "setExchangeRates",
      "outputs": [],
      "stateMutability": "nonpayable",
      "type": "function"
    },
    {
      "inputs": [
        {
          "internalType": "bool",
          "name": "isBuy",
          "type": "bool"
        },
        {
          "internalType": "uint256",
          "name": "_amount",
          "type": "uint256"
        }
      ],
      "name": "getExchangeRate",
      "outputs": [
        {
          "internalType": "uint256",
          "name": "",
          "type": "uint256"
        }
      ],
      "stateMutability": "view",
      "type": "function"
    },
    {
      "inputs": [],
      "name": "getTokenBalance",
      "outputs": [
        {
          "internalType": "uint256",
          "name": "",
          "type": "uint256"
        }
      ],
      "stateMutability": "view",
      "type": "function"
    },
    {
      "inputs": [],
      "name": "getBalance",
      "outputs": [
        {
          "internalType": "uint256",
          "name": "",
          "type": "uint256"
        }
      ],
      "stateMutability": "view",
      "type": "function"
    },
    {
      "inputs": [
        {
          "internalType": "bool",
          "name": "isBuy",
          "type": "bool"
        },
        {
          "internalType": "uint256",
          "name": "_amount",
          "type": "uint256"
        },
        {
          "internalType": "address payable",
          "name": "from",
          "type": "address"
        }
      ],
      "name": "exchange",
      "outputs": [
        {
          "internalType": "uint256",
          "name": "",
          "type": "uint256"
        }
      ],
      "stateMutability": "payable",
      "type": "function"
    }
  ],
  "bytecode": "0x6080604052306000806101000a81548173ffffffffffffffffffffffffffffffffffffffff021916908373ffffffffffffffffffffffffffffffffffffffff160217905550670de0b6b3a764000060025534801561005c57600080fd5b50604051610dee380380610dee833981810160405281019061007e9190610128565b80600160006101000a81548173ffffffffffffffffffffffffffffffffffffffff021916908373ffffffffffffffffffffffffffffffffffffffff16021790555050610155565b600080fd5b600073ffffffffffffffffffffffffffffffffffffffff82169050919050565b60006100f5826100ca565b9050919050565b610105816100ea565b811461011057600080fd5b50565b600081519050610122816100fc565b92915050565b60006020828403121561013e5761013d6100c5565b5b600061014c84828501610113565b91505092915050565b610c8a806101646000396000f3fe6080604052600436106100555760003560e01c806312065fe01461005a57806315a5d9d81461008557806377ed0ad6146100b057806382b2e257146100ed578063e637a44b14610118578063e8a2aad014610141575b600080fd5b34801561006657600080fd5b5061006f610171565b60405161007c919061080e565b60405180910390f35b34801561009157600080fd5b5061009a6101b1565b6040516100a7919061086a565b60405180910390f35b3480156100bc57600080fd5b506100d760048036038101906100d291906108ee565b6101d5565b6040516100e4919061080e565b60405180910390f35b3480156100f957600080fd5b50610102610339565b60405161010f919061080e565b60405180910390f35b34801561012457600080fd5b5061013f600480360381019061013a919061092e565b6103fc565b005b61015b600480360381019061015691906109ac565b61040e565b604051610168919061080e565b60405180910390f35b60008060009054906101000a900473ffffffffffffffffffffffffffffffffffffffff1673ffffffffffffffffffffffffffffffffffffffff1631905090565b60008054906101000a900473ffffffffffffffffffffffffffffffffffffffff1681565b600082156102cc57600160009054906101000a900473ffffffffffffffffffffffffffffffffffffffff1673ffffffffffffffffffffffffffffffffffffffff166370a0823160008054906101000a900473ffffffffffffffffffffffffffffffffffffffff166040518263ffffffff1660e01b8152600401610258919061086a565b602060405180830381865afa158015610275573d6000803e3d6000fd5b505050506040513d601f19601f820116820180604052508101906102999190610a14565b600354600254846102aa9190610a70565b6102b49190610af9565b116102c3576003549050610333565b60009050610333565b60008054906101000a900473ffffffffffffffffffffffffffffffffffffffff1673ffffffffffffffffffffffffffffffffffffffff1631600254600454846103159190610a70565b61031f9190610af9565b1161032e576004549050610333565b600090505b92915050565b6000600160009054906101000a900473ffffffffffffffffffffffffffffffffffffffff1673ffffffffffffffffffffffffffffffffffffffff166370a0823160008054906101000a900473ffffffffffffffffffffffffffffffffffffffff166040518263ffffffff1660e01b81526004016103b6919061086a565b602060405180830381865afa1580156103d3573d6000803e3d6000fd5b505050506040513d601f19601f820116820180604052508101906103f79190610a14565b905090565b81600381905550806004819055505050565b600083156105b35782341461042257600080fd5b6000600354600254856104359190610a70565b61043f9190610af9565b9050600160009054906101000a900473ffffffffffffffffffffffffffffffffffffffff1673ffffffffffffffffffffffffffffffffffffffff166370a0823160008054906101000a900473ffffffffffffffffffffffffffffffffffffffff166040518263ffffffff1660e01b81526004016104bc919061086a565b602060405180830381865afa1580156104d9573d6000803e3d6000fd5b505050506040513d601f19601f820116820180604052508101906104fd9190610a14565b81111561050957600080fd5b600160009054906101000a900473ffffffffffffffffffffffffffffffffffffffff1673ffffffffffffffffffffffffffffffffffffffff1663a9059cbb84836040518363ffffffff1660e01b8152600401610566929190610b89565b6020604051808303816000875af1158015610585573d6000803e3d6000fd5b505050506040513d601f19601f820116820180604052508101906105a99190610bc7565b50809150506107ee565b82600160009054906101000a900473ffffffffffffffffffffffffffffffffffffffff1673ffffffffffffffffffffffffffffffffffffffff1663dd62ed3e3360008054906101000a900473ffffffffffffffffffffffffffffffffffffffff166040518363ffffffff1660e01b8152600401610631929190610bf4565b602060405180830381865afa15801561064e573d6000803e3d6000fd5b505050506040513d601f19601f820116820180604052508101906106729190610a14565b1461067c57600080fd5b600160009054906101000a900473ffffffffffffffffffffffffffffffffffffffff1673ffffffffffffffffffffffffffffffffffffffff166323b872dd3360008054906101000a900473ffffffffffffffffffffffffffffffffffffffff16866040518463ffffffff1660e01b81526004016106fb93929190610c1d565b6020604051808303816000875af115801561071a573d6000803e3d6000fd5b505050506040513d601f19601f8201168201806040525081019061073e9190610bc7565b506000600254600454856107529190610a70565b61075c9190610af9565b905060008054906101000a900473ffffffffffffffffffffffffffffffffffffffff1673ffffffffffffffffffffffffffffffffffffffff16318111156107a257600080fd5b8273ffffffffffffffffffffffffffffffffffffffff166108fc829081150290604051600060405180830381858888f193505050501580156107e8573d6000803e3d6000fd5b50809150505b9392505050565b6000819050919050565b610808816107f5565b82525050565b600060208201905061082360008301846107ff565b92915050565b600073ffffffffffffffffffffffffffffffffffffffff82169050919050565b600061085482610829565b9050919050565b61086481610849565b82525050565b600060208201905061087f600083018461085b565b92915050565b600080fd5b60008115159050919050565b61089f8161088a565b81146108aa57600080fd5b50565b6000813590506108bc81610896565b92915050565b6108cb816107f5565b81146108d657600080fd5b50565b6000813590506108e8816108c2565b92915050565b6000806040838503121561090557610904610885565b5b6000610913858286016108ad565b9250506020610924858286016108d9565b9150509250929050565b6000806040838503121561094557610944610885565b5b6000610953858286016108d9565b9250506020610964858286016108d9565b9150509250929050565b600061097982610829565b9050919050565b6109898161096e565b811461099457600080fd5b50565b6000813590506109a681610980565b92915050565b6000806000606084860312156109c5576109c4610885565b5b60006109d3868287016108ad565b93505060206109e4868287016108d9565b92505060406109f586828701610997565b9150509250925092565b600081519050610a0e816108c2565b92915050565b600060208284031215610a2a57610a29610885565b5b6000610a38848285016109ff565b91505092915050565b7f4e487b7100000000000000000000000000000000000000000000000000000000600052601160045260246000fd5b6000610a7b826107f5565b9150610a86836107f5565b9250817fffffffffffffffffffffffffffffffffffffffffffffffffffffffffffffffff0483118215151615610abf57610abe610a41565b5b828202905092915050565b7f4e487b7100000000000000000000000000000000000000000000000000000000600052601260045260246000fd5b6000610b04826107f5565b9150610b0f836107f5565b925082610b1f57610b1e610aca565b5b828204905092915050565b6000819050919050565b6000610b4f610b4a610b4584610829565b610b2a565b610829565b9050919050565b6000610b6182610b34565b9050919050565b6000610b7382610b56565b9050919050565b610b8381610b68565b82525050565b6000604082019050610b9e6000830185610b7a565b610bab60208301846107ff565b9392505050565b600081519050610bc181610896565b92915050565b600060208284031215610bdd57610bdc610885565b5b6000610beb84828501610bb2565b91505092915050565b6000604082019050610c09600083018561085b565b610c16602083018461085b565b9392505050565b6000606082019050610c32600083018661085b565b610c3f602083018561085b565b610c4c60408301846107ff565b94935050505056fea2646970667358221220651a029b8866ef3f49c231abc929e497379e4332e54dcacdfb3b4193da12681b64736f6c634300080a0033",
  "immutableReferences": {},
  "source": "// SPDX-License-Identifier: MIT\npragma solidity 0.8.10;\nimport \"@openzeppelin/contracts/interfaces/IERC20.sol\";\n\ncontract Reserve {\n    \n    address public contractAddr = address(this);\n\n    IERC20 token;\n\n    uint fixedUnit = 10**18;\n    uint buyRate;\n    uint sellRate;\n\n    constructor(address _token){\n        token = IERC20(_token);\n\n    }   \n     \n    \n    function setExchangeRates(uint _buyRate, uint _sellRate) public {\n        \n        buyRate = _buyRate ;\n        sellRate = _sellRate;\n        \n    }\n    \n    function getExchangeRate(bool isBuy, uint _amount) public view returns (uint) {\n        \n        if(isBuy) {\n            \n            if(_amount * fixedUnit / buyRate  <= token.balanceOf(contractAddr) ) {\n                \n                return buyRate;\n            \n            }\n            else return 0;\n        } else {\n            \n            if(_amount * sellRate / fixedUnit <= contractAddr.balance ) {\n                return sellRate;\n            }\n            else return 0;\n        }\n        \n    }\n\n    function getTokenBalance() public view returns(uint) {\n        \n        return token.balanceOf(contractAddr);\n        \n    }\n    \n    function getBalance() public view returns(uint) {\n        \n        return contractAddr.balance;\n    \n    }\n    \n\n    function exchange(bool isBuy, uint _amount, address payable from) public payable returns(uint)  {\n        \n        if(isBuy) {\n            \n            require(msg.value == _amount);\n            \n            uint exchangeAmount = _amount * fixedUnit / buyRate;\n            require(exchangeAmount <= token.balanceOf(contractAddr));\n            token.transfer(from, exchangeAmount);\n            return exchangeAmount;\n            \n        } \n        else {\n            \n            require( token.allowance( msg.sender, contractAddr ) == _amount );\n            token.transferFrom(msg.sender, contractAddr, _amount);\n            \n            uint exchangeAmount = _amount * sellRate / fixedUnit;\n            require(exchangeAmount <= contractAddr.balance);\n            \n            from.transfer(exchangeAmount);\n            return exchangeAmount;\n\n        }\n    }\n    \n}",
  "sourcePath": "/home/hussain/projects/swaptokens/contracts/Reserve.sol",
  "compiler": {
    "name": "solc",
    "version": "0.8.10+commit.fc410830.Emscripten.clang"
  },
  "schemaVersion": "3.4.3",
  "updatedAt": "2022-01-17T17:27:16.814Z",
  "devdoc": {
    "kind": "dev",
    "methods": {},
    "version": 1
  },
  "userdoc": {
    "kind": "user",
    "methods": {},
    "version": 1
  }
}