{
  "contractName": "Reserve",
  "abi": [
    {
      "inputs": [
        {
          "internalType": "address",
          "name": "_token",
          "type": "address"
        }
      ],
      "stateMutability": "nonpayable",
      "type": "constructor"
    },
    {
      "inputs": [],
      "name": "contractAddr",
      "outputs": [
        {
          "internalType": "address",
          "name": "",
          "type": "address"
        }
      ],
      "stateMutability": "view",
      "type": "function"
    },
    {
      "inputs": [],
      "name": "token",
      "outputs": [
        {
          "internalType": "contract TestToken",
          "name": "",
          "type": "address"
        }
      ],
      "stateMutability": "view",
      "type": "function"
    },
    {
      "inputs": [
        {
          "internalType": "uint256",
          "name": "_amount",
          "type": "uint256"
        }
      ],
      "name": "addLiquidity",
      "outputs": [],
      "stateMutability": "payable",
      "type": "function"
    },
    {
      "inputs": [],
      "name": "getToken",
      "outputs": [
        {
          "internalType": "address",
          "name": "",
          "type": "address"
        }
      ],
      "stateMutability": "view",
      "type": "function"
    },
    {
      "inputs": [],
      "name": "getTokenBalance",
      "outputs": [
        {
          "internalType": "uint256",
          "name": "",
          "type": "uint256"
        }
      ],
      "stateMutability": "view",
      "type": "function"
    },
    {
      "inputs": [],
      "name": "getBalance",
      "outputs": [
        {
          "internalType": "uint256",
          "name": "",
          "type": "uint256"
        }
      ],
      "stateMutability": "view",
      "type": "function"
    },
    {
      "inputs": [
        {
          "internalType": "uint256",
          "name": "_rate",
          "type": "uint256"
        }
      ],
      "name": "setRates",
      "outputs": [],
      "stateMutability": "nonpayable",
      "type": "function"
    },
    {
      "inputs": [
        {
          "internalType": "uint256",
          "name": "_ethSold",
          "type": "uint256"
        }
      ],
      "name": "getTokenRate",
      "outputs": [
        {
          "internalType": "uint256",
          "name": "",
          "type": "uint256"
        }
      ],
      "stateMutability": "view",
      "type": "function"
    },
    {
      "inputs": [
        {
          "internalType": "uint256",
          "name": "_tokenSold",
          "type": "uint256"
        }
      ],
      "name": "getEthRate",
      "outputs": [
        {
          "internalType": "uint256",
          "name": "",
          "type": "uint256"
        }
      ],
      "stateMutability": "view",
      "type": "function"
    },
    {
      "inputs": [
        {
          "internalType": "bool",
          "name": "isBuy",
          "type": "bool"
        },
        {
          "internalType": "uint256",
          "name": "_amount",
          "type": "uint256"
        },
        {
          "internalType": "address",
          "name": "_from",
          "type": "address"
        }
      ],
      "name": "exchange",
      "outputs": [
        {
          "internalType": "uint256",
          "name": "",
          "type": "uint256"
        }
      ],
      "stateMutability": "payable",
      "type": "function"
    },
    {
      "inputs": [
        {
          "internalType": "uint256",
          "name": "_amount",
          "type": "uint256"
        },
        {
          "internalType": "address",
          "name": "_to",
          "type": "address"
        }
      ],
      "name": "tokenSwap",
      "outputs": [],
      "stateMutability": "nonpayable",
      "type": "function"
    }
  ],
  "bytecode": "0x6080604052306000806101000a81548173ffffffffffffffffffffffffffffffffffffffff021916908373ffffffffffffffffffffffffffffffffffffffff16021790555073eeeeeeeeeeeeeeeeeeeeeeeeeeeeeeeeeeeeeeee600160006101000a81548173ffffffffffffffffffffffffffffffffffffffff021916908373ffffffffffffffffffffffffffffffffffffffff160217905550670de0b6b3a7640000600355348015620000b257600080fd5b5060405162001134380380620011348339818101604052810190620000d891906200018a565b80600260006101000a81548173ffffffffffffffffffffffffffffffffffffffff021916908373ffffffffffffffffffffffffffffffffffffffff16021790555050620001bc565b600080fd5b600073ffffffffffffffffffffffffffffffffffffffff82169050919050565b6000620001528262000125565b9050919050565b620001648162000145565b81146200017057600080fd5b50565b600081519050620001848162000159565b92915050565b600060208284031215620001a357620001a262000120565b5b6000620001b38482850162000173565b91505092915050565b610f6880620001cc6000396000f3fe60806040526004361061009c5760003560e01c80633d0bfd56116100645780633d0bfd561461018857806351c6590a146101b157806382b2e257146101cd578063e8a2aad0146101f8578063e9739db714610228578063fc0c546a146102655761009c565b80630859e844146100a157806312065fe0146100de57806315a5d9d81461010957806321df0da7146101345780632d1babed1461015f575b600080fd5b3480156100ad57600080fd5b506100c860048036038101906100c391906109ec565b610290565b6040516100d59190610a28565b60405180910390f35b3480156100ea57600080fd5b506100f36102f6565b6040516101009190610a28565b60405180910390f35b34801561011557600080fd5b5061011e610336565b60405161012b9190610a84565b60405180910390f35b34801561014057600080fd5b5061014961035a565b6040516101569190610a84565b60405180910390f35b34801561016b57600080fd5b50610186600480360381019061018191906109ec565b610384565b005b34801561019457600080fd5b506101af60048036038101906101aa9190610acb565b61038e565b005b6101cb60048036038101906101c691906109ec565b610441565b005b3480156101d957600080fd5b506101e2610507565b6040516101ef9190610a28565b60405180910390f35b610212600480360381019061020d9190610b43565b6105ca565b60405161021f9190610a28565b60405180910390f35b34801561023457600080fd5b5061024f600480360381019061024a91906109ec565b610925565b60405161025c9190610a28565b60405180910390f35b34801561027157600080fd5b5061027a61098b565b6040516102879190610bf5565b60405180910390f35b60008082116102d4576040517f08c379a00000000000000000000000000000000000000000000000000000000081526004016102cb90610c6d565b60405180910390fd5b600454600354836102e59190610cbc565b6102ef9190610d45565b9050919050565b60008060009054906101000a900473ffffffffffffffffffffffffffffffffffffffff1673ffffffffffffffffffffffffffffffffffffffff1631905090565b60008054906101000a900473ffffffffffffffffffffffffffffffffffffffff1681565b6000600260009054906101000a900473ffffffffffffffffffffffffffffffffffffffff16905090565b8060048190555050565b600061039983610925565b9050600260009054906101000a900473ffffffffffffffffffffffffffffffffffffffff1673ffffffffffffffffffffffffffffffffffffffff1663a9059cbb83836040518363ffffffff1660e01b81526004016103f8929190610d76565b6020604051808303816000875af1158015610417573d6000803e3d6000fd5b505050506040513d601f19601f8201168201806040525081019061043b9190610db4565b50505050565b600260009054906101000a900473ffffffffffffffffffffffffffffffffffffffff1673ffffffffffffffffffffffffffffffffffffffff166323b872dd3360008054906101000a900473ffffffffffffffffffffffffffffffffffffffff16846040518463ffffffff1660e01b81526004016104c093929190610de1565b6020604051808303816000875af11580156104df573d6000803e3d6000fd5b505050506040513d601f19601f820116820180604052508101906105039190610db4565b5050565b6000600260009054906101000a900473ffffffffffffffffffffffffffffffffffffffff1673ffffffffffffffffffffffffffffffffffffffff166370a0823160008054906101000a900473ffffffffffffffffffffffffffffffffffffffff166040518263ffffffff1660e01b81526004016105849190610a84565b602060405180830381865afa1580156105a1573d6000803e3d6000fd5b505050506040513d601f19601f820116820180604052508101906105c59190610e2d565b905090565b60008083116105d857600080fd5b83156106f1578234146105ea57600080fd5b60006105f4610507565b9050600061060134610925565b905081811115610646576040517f08c379a000000000000000000000000000000000000000000000000000000000815260040161063d90610ea6565b60405180910390fd5b600260009054906101000a900473ffffffffffffffffffffffffffffffffffffffff1673ffffffffffffffffffffffffffffffffffffffff1663a9059cbb85836040518363ffffffff1660e01b81526004016106a3929190610d76565b6020604051808303816000875af11580156106c2573d6000803e3d6000fd5b505050506040513d601f19601f820116820180604052508101906106e69190610db4565b50809250505061091e565b60006106fb6102f6565b9050600061070885610290565b90508181111561074d576040517f08c379a000000000000000000000000000000000000000000000000000000000815260040161074490610ea6565b60405180910390fd5b600260009054906101000a900473ffffffffffffffffffffffffffffffffffffffff1673ffffffffffffffffffffffffffffffffffffffff1663095ea7b360008054906101000a900473ffffffffffffffffffffffffffffffffffffffff16876040518363ffffffff1660e01b81526004016107ca929190610d76565b6020604051808303816000875af11580156107e9573d6000803e3d6000fd5b505050506040513d601f19601f8201168201806040525081019061080d9190610db4565b50600260009054906101000a900473ffffffffffffffffffffffffffffffffffffffff1673ffffffffffffffffffffffffffffffffffffffff166323b872dd8560008054906101000a900473ffffffffffffffffffffffffffffffffffffffff16886040518463ffffffff1660e01b815260040161088d93929190610de1565b6020604051808303816000875af11580156108ac573d6000803e3d6000fd5b505050506040513d601f19601f820116820180604052508101906108d09190610db4565b508373ffffffffffffffffffffffffffffffffffffffff166108fc829081150290604051600060405180830381858888f19350505050158015610917573d6000803e3d6000fd5b5080925050505b9392505050565b6000808211610969576040517f08c379a000000000000000000000000000000000000000000000000000000000815260040161096090610f12565b60405180910390fd5b6003546004548361097a9190610cbc565b6109849190610d45565b9050919050565b600260009054906101000a900473ffffffffffffffffffffffffffffffffffffffff1681565b600080fd5b6000819050919050565b6109c9816109b6565b81146109d457600080fd5b50565b6000813590506109e6816109c0565b92915050565b600060208284031215610a0257610a016109b1565b5b6000610a10848285016109d7565b91505092915050565b610a22816109b6565b82525050565b6000602082019050610a3d6000830184610a19565b92915050565b600073ffffffffffffffffffffffffffffffffffffffff82169050919050565b6000610a6e82610a43565b9050919050565b610a7e81610a63565b82525050565b6000602082019050610a996000830184610a75565b92915050565b610aa881610a63565b8114610ab357600080fd5b50565b600081359050610ac581610a9f565b92915050565b60008060408385031215610ae257610ae16109b1565b5b6000610af0858286016109d7565b9250506020610b0185828601610ab6565b9150509250929050565b60008115159050919050565b610b2081610b0b565b8114610b2b57600080fd5b50565b600081359050610b3d81610b17565b92915050565b600080600060608486031215610b5c57610b5b6109b1565b5b6000610b6a86828701610b2e565b9350506020610b7b868287016109d7565b9250506040610b8c86828701610ab6565b9150509250925092565b6000819050919050565b6000610bbb610bb6610bb184610a43565b610b96565b610a43565b9050919050565b6000610bcd82610ba0565b9050919050565b6000610bdf82610bc2565b9050919050565b610bef81610bd4565b82525050565b6000602082019050610c0a6000830184610be6565b92915050565b600082825260208201905092915050565b7f746f6b656e536f6c6420697320746f6f20736d616c6c00000000000000000000600082015250565b6000610c57601683610c10565b9150610c6282610c21565b602082019050919050565b60006020820190508181036000830152610c8681610c4a565b9050919050565b7f4e487b7100000000000000000000000000000000000000000000000000000000600052601160045260246000fd5b6000610cc7826109b6565b9150610cd2836109b6565b9250817fffffffffffffffffffffffffffffffffffffffffffffffffffffffffffffffff0483118215151615610d0b57610d0a610c8d565b5b828202905092915050565b7f4e487b7100000000000000000000000000000000000000000000000000000000600052601260045260246000fd5b6000610d50826109b6565b9150610d5b836109b6565b925082610d6b57610d6a610d16565b5b828204905092915050565b6000604082019050610d8b6000830185610a75565b610d986020830184610a19565b9392505050565b600081519050610dae81610b17565b92915050565b600060208284031215610dca57610dc96109b1565b5b6000610dd884828501610d9f565b91505092915050565b6000606082019050610df66000830186610a75565b610e036020830185610a75565b610e106040830184610a19565b949350505050565b600081519050610e27816109c0565b92915050565b600060208284031215610e4357610e426109b1565b5b6000610e5184828501610e18565b91505092915050565b7f696e73756666696369656e74206f757470757420616d6f756e74000000000000600082015250565b6000610e90601a83610c10565b9150610e9b82610e5a565b602082019050919050565b60006020820190508181036000830152610ebf81610e83565b9050919050565b7f657468536f6c6420697320746f6f20736d616c6c000000000000000000000000600082015250565b6000610efc601483610c10565b9150610f0782610ec6565b602082019050919050565b60006020820190508181036000830152610f2b81610eef565b905091905056fea26469706673582212202404a4a05b52c3ebe0ba83d8348647a2bfed9d2b087ffafabda568f6f5a8675a64736f6c634300080a0033",
  "immutableReferences": {},
  "source": "// SPDX-License-Identifier: MIT\npragma solidity 0.8.10;\nimport \"./TestToken.sol\";\n\ncontract Reserve {\n    \n    address public contractAddr = address(this);\n    address nativeToken = 0xEeeeeEeeeEeEeeEeEeEeeEEEeeeeEeeeeeeeEEeE;\n\n    TestToken public token;\n\n    uint fixedUnit = 10**18;\n    uint rate;\n\n    constructor(address _token){\n        token = TestToken(_token);\n\n    }\n\n    function addLiquidity(uint _amount) public payable {\n        token.transferFrom(msg.sender, contractAddr, _amount);\n    }\n\n    function getToken() public view returns(address){\n        return address(token);\n    }\n\n    function getTokenBalance() public view returns(uint) {\n        \n        return token.balanceOf(contractAddr);\n        \n    }\n\n    function getBalance() public view returns(uint){\n        return contractAddr.balance;\n    }\n\n    function setRates(uint _rate) public {\n        \n        rate = _rate ;\n    }\n    \n    function getTokenRate(uint _ethSold) public view returns (uint) {\n        require(_ethSold > 0, \"ethSold is too small\");\n        return (_ethSold * rate) / fixedUnit;\n    }\n\n    function getEthRate(uint _tokenSold) public view returns (uint) {\n        require(_tokenSold > 0, \"tokenSold is too small\");\n        return (_tokenSold * fixedUnit) / rate;\n    }\n\n    function exchange(bool isBuy, uint _amount, address _from) payable public returns(uint) {\n        require(_amount > 0);\n        \n        if(isBuy) {\n            require(msg.value == _amount);\n            uint tokenReserve = getTokenBalance();\n            uint tokensBought = getTokenRate(msg.value);\n            require(tokensBought <= tokenReserve, \"insufficient output amount\");\n            token.transfer(_from, tokensBought);\n\n            return tokensBought;\n             \n        } else{\n            \n            uint EthReserve = getBalance();\n            uint ethBought = getEthRate( _amount);\n\n            require(ethBought <= EthReserve, \"insufficient output amount\");\n            token.approve(contractAddr, _amount);\n            token.transferFrom(\n                _from,\n                contractAddr,\n                _amount\n            );\n            payable(_from).transfer(ethBought);\n\n            return ethBought;\n        } \n    }\n\n    function tokenSwap(uint _amount, address _to) public {\n        uint tokenSwapped = getTokenRate(_amount);\n        token.transfer(_to, tokenSwapped);\n    } \n\n}\n    ",
  "sourcePath": "/home/hussain/projects/swaptokens/contracts/Reserve.sol",
  "compiler": {
    "name": "solc",
    "version": "0.8.10+commit.fc410830.Emscripten.clang"
  },
  "schemaVersion": "3.4.3",
  "updatedAt": "2022-01-22T00:12:44.543Z",
  "devdoc": {
    "kind": "dev",
    "methods": {},
    "version": 1
  },
  "userdoc": {
    "kind": "user",
    "methods": {},
    "version": 1
  }
}