{
  "contractName": "Reserve",
  "abi": [
    {
      "inputs": [
        {
          "internalType": "address",
          "name": "_token",
          "type": "address"
        }
      ],
      "stateMutability": "nonpayable",
      "type": "constructor"
    },
    {
      "inputs": [],
      "name": "contractAddr",
      "outputs": [
        {
          "internalType": "address",
          "name": "",
          "type": "address"
        }
      ],
      "stateMutability": "view",
      "type": "function"
    },
    {
      "inputs": [],
      "name": "token",
      "outputs": [
        {
          "internalType": "contract ERC20",
          "name": "",
          "type": "address"
        }
      ],
      "stateMutability": "view",
      "type": "function"
    },
    {
      "inputs": [
        {
          "internalType": "uint256",
          "name": "_buyRate",
          "type": "uint256"
        },
        {
          "internalType": "uint256",
          "name": "_sellRate",
          "type": "uint256"
        }
      ],
      "name": "setExchangeRates",
      "outputs": [],
      "stateMutability": "nonpayable",
      "type": "function"
    },
    {
      "inputs": [
        {
          "internalType": "bool",
          "name": "isBuy",
          "type": "bool"
        },
        {
          "internalType": "uint256",
          "name": "_amount",
          "type": "uint256"
        }
      ],
      "name": "getExchangeRate",
      "outputs": [
        {
          "internalType": "uint256",
          "name": "",
          "type": "uint256"
        }
      ],
      "stateMutability": "view",
      "type": "function"
    },
    {
      "inputs": [],
      "name": "getTokenBalance",
      "outputs": [
        {
          "internalType": "uint256",
          "name": "",
          "type": "uint256"
        }
      ],
      "stateMutability": "view",
      "type": "function"
    },
    {
      "inputs": [],
      "name": "getBalance",
      "outputs": [
        {
          "internalType": "uint256",
          "name": "",
          "type": "uint256"
        }
      ],
      "stateMutability": "view",
      "type": "function"
    },
    {
      "inputs": [
        {
          "internalType": "bool",
          "name": "isBuy",
          "type": "bool"
        },
        {
          "internalType": "uint256",
          "name": "_amount",
          "type": "uint256"
        },
        {
          "internalType": "address payable",
          "name": "from",
          "type": "address"
        }
      ],
      "name": "exchange",
      "outputs": [
        {
          "internalType": "uint256",
          "name": "",
          "type": "uint256"
        }
      ],
      "stateMutability": "payable",
      "type": "function"
    }
  ],
  "bytecode": "0x6080604052306000806101000a81548173ffffffffffffffffffffffffffffffffffffffff021916908373ffffffffffffffffffffffffffffffffffffffff160217905550670de0b6b3a764000060025534801561005c57600080fd5b50604051610e96380380610e96833981810160405281019061007e9190610128565b80600160006101000a81548173ffffffffffffffffffffffffffffffffffffffff021916908373ffffffffffffffffffffffffffffffffffffffff16021790555050610155565b600080fd5b600073ffffffffffffffffffffffffffffffffffffffff82169050919050565b60006100f5826100ca565b9050919050565b610105816100ea565b811461011057600080fd5b50565b600081519050610122816100fc565b92915050565b60006020828403121561013e5761013d6100c5565b5b600061014c84828501610113565b91505092915050565b610d32806101646000396000f3fe6080604052600436106100705760003560e01c806382b2e2571161004e57806382b2e25714610108578063e637a44b14610133578063e8a2aad01461015c578063fc0c546a1461018c57610070565b806312065fe01461007557806315a5d9d8146100a057806377ed0ad6146100cb575b600080fd5b34801561008157600080fd5b5061008a6101b7565b604051610097919061087a565b60405180910390f35b3480156100ac57600080fd5b506100b56101f7565b6040516100c291906108d6565b60405180910390f35b3480156100d757600080fd5b506100f260048036038101906100ed919061095a565b61021b565b6040516100ff919061087a565b60405180910390f35b34801561011457600080fd5b5061011d61037f565b60405161012a919061087a565b60405180910390f35b34801561013f57600080fd5b5061015a6004803603810190610155919061099a565b610442565b005b61017660048036038101906101719190610a18565b610454565b604051610183919061087a565b60405180910390f35b34801561019857600080fd5b506101a161083b565b6040516101ae9190610aca565b60405180910390f35b60008060009054906101000a900473ffffffffffffffffffffffffffffffffffffffff1673ffffffffffffffffffffffffffffffffffffffff1631905090565b60008054906101000a900473ffffffffffffffffffffffffffffffffffffffff1681565b6000821561031257600354600254836102349190610b14565b61023e9190610b9d565b600160009054906101000a900473ffffffffffffffffffffffffffffffffffffffff1673ffffffffffffffffffffffffffffffffffffffff166370a0823160008054906101000a900473ffffffffffffffffffffffffffffffffffffffff166040518263ffffffff1660e01b81526004016102b991906108d6565b602060405180830381865afa1580156102d6573d6000803e3d6000fd5b505050506040513d601f19601f820116820180604052508101906102fa9190610be3565b10610309576003549050610379565b60009050610379565b60008054906101000a900473ffffffffffffffffffffffffffffffffffffffff1673ffffffffffffffffffffffffffffffffffffffff16316002546004548461035b9190610b14565b6103659190610b9d565b11610374576004549050610379565b600090505b92915050565b6000600160009054906101000a900473ffffffffffffffffffffffffffffffffffffffff1673ffffffffffffffffffffffffffffffffffffffff166370a0823160008054906101000a900473ffffffffffffffffffffffffffffffffffffffff166040518263ffffffff1660e01b81526004016103fc91906108d6565b602060405180830381865afa158015610419573d6000803e3d6000fd5b505050506040513d601f19601f8201168201806040525081019061043d9190610be3565b905090565b81600381905550806004819055505050565b600083156105f95782341461046857600080fd5b60006003546002548561047b9190610b14565b6104859190610b9d565b9050600160009054906101000a900473ffffffffffffffffffffffffffffffffffffffff1673ffffffffffffffffffffffffffffffffffffffff166370a0823160008054906101000a900473ffffffffffffffffffffffffffffffffffffffff166040518263ffffffff1660e01b815260040161050291906108d6565b602060405180830381865afa15801561051f573d6000803e3d6000fd5b505050506040513d601f19601f820116820180604052508101906105439190610be3565b81111561054f57600080fd5b600160009054906101000a900473ffffffffffffffffffffffffffffffffffffffff1673ffffffffffffffffffffffffffffffffffffffff1663a9059cbb84836040518363ffffffff1660e01b81526004016105ac929190610c31565b6020604051808303816000875af11580156105cb573d6000803e3d6000fd5b505050506040513d601f19601f820116820180604052508101906105ef9190610c6f565b5080915050610834565b82600160009054906101000a900473ffffffffffffffffffffffffffffffffffffffff1673ffffffffffffffffffffffffffffffffffffffff1663dd62ed3e3360008054906101000a900473ffffffffffffffffffffffffffffffffffffffff166040518363ffffffff1660e01b8152600401610677929190610c9c565b602060405180830381865afa158015610694573d6000803e3d6000fd5b505050506040513d601f19601f820116820180604052508101906106b89190610be3565b146106c257600080fd5b600160009054906101000a900473ffffffffffffffffffffffffffffffffffffffff1673ffffffffffffffffffffffffffffffffffffffff166323b872dd3360008054906101000a900473ffffffffffffffffffffffffffffffffffffffff16866040518463ffffffff1660e01b815260040161074193929190610cc5565b6020604051808303816000875af1158015610760573d6000803e3d6000fd5b505050506040513d601f19601f820116820180604052508101906107849190610c6f565b506000600254600454856107989190610b14565b6107a29190610b9d565b905060008054906101000a900473ffffffffffffffffffffffffffffffffffffffff1673ffffffffffffffffffffffffffffffffffffffff16318111156107e857600080fd5b8273ffffffffffffffffffffffffffffffffffffffff166108fc829081150290604051600060405180830381858888f1935050505015801561082e573d6000803e3d6000fd5b50809150505b9392505050565b600160009054906101000a900473ffffffffffffffffffffffffffffffffffffffff1681565b6000819050919050565b61087481610861565b82525050565b600060208201905061088f600083018461086b565b92915050565b600073ffffffffffffffffffffffffffffffffffffffff82169050919050565b60006108c082610895565b9050919050565b6108d0816108b5565b82525050565b60006020820190506108eb60008301846108c7565b92915050565b600080fd5b60008115159050919050565b61090b816108f6565b811461091657600080fd5b50565b60008135905061092881610902565b92915050565b61093781610861565b811461094257600080fd5b50565b6000813590506109548161092e565b92915050565b60008060408385031215610971576109706108f1565b5b600061097f85828601610919565b925050602061099085828601610945565b9150509250929050565b600080604083850312156109b1576109b06108f1565b5b60006109bf85828601610945565b92505060206109d085828601610945565b9150509250929050565b60006109e582610895565b9050919050565b6109f5816109da565b8114610a0057600080fd5b50565b600081359050610a12816109ec565b92915050565b600080600060608486031215610a3157610a306108f1565b5b6000610a3f86828701610919565b9350506020610a5086828701610945565b9250506040610a6186828701610a03565b9150509250925092565b6000819050919050565b6000610a90610a8b610a8684610895565b610a6b565b610895565b9050919050565b6000610aa282610a75565b9050919050565b6000610ab482610a97565b9050919050565b610ac481610aa9565b82525050565b6000602082019050610adf6000830184610abb565b92915050565b7f4e487b7100000000000000000000000000000000000000000000000000000000600052601160045260246000fd5b6000610b1f82610861565b9150610b2a83610861565b9250817fffffffffffffffffffffffffffffffffffffffffffffffffffffffffffffffff0483118215151615610b6357610b62610ae5565b5b828202905092915050565b7f4e487b7100000000000000000000000000000000000000000000000000000000600052601260045260246000fd5b6000610ba882610861565b9150610bb383610861565b925082610bc357610bc2610b6e565b5b828204905092915050565b600081519050610bdd8161092e565b92915050565b600060208284031215610bf957610bf86108f1565b5b6000610c0784828501610bce565b91505092915050565b6000610c1b82610a97565b9050919050565b610c2b81610c10565b82525050565b6000604082019050610c466000830185610c22565b610c53602083018461086b565b9392505050565b600081519050610c6981610902565b92915050565b600060208284031215610c8557610c846108f1565b5b6000610c9384828501610c5a565b91505092915050565b6000604082019050610cb160008301856108c7565b610cbe60208301846108c7565b9392505050565b6000606082019050610cda60008301866108c7565b610ce760208301856108c7565b610cf4604083018461086b565b94935050505056fea26469706673582212204856233d621307e692803e80b028fec3ee94f37ec42ecea7ce165608fc56917864736f6c634300080a0033",
  "immutableReferences": {},
  "source": "// SPDX-License-Identifier: MIT\npragma solidity 0.8.10;\nimport \"./TestToken.sol\";\n\ncontract Reserve {\n    \n    address public contractAddr = address(this);\n\n    ERC20 public token;\n\n    uint fixedUnit = 10**18;\n    uint buyRate;\n    uint sellRate;\n\n    constructor(address _token){\n        token = ERC20(_token);\n\n    }   \n     \n    \n    function setExchangeRates(uint _buyRate, uint _sellRate) public {\n        \n        buyRate = _buyRate ;\n        sellRate = _sellRate;\n        \n    }\n    \n    function getExchangeRate(bool isBuy, uint _amount) public view returns (uint) {\n        \n        if(isBuy) {\n            \n            if( token.balanceOf(contractAddr) >= (_amount * fixedUnit) / buyRate ) {\n                \n                return buyRate;\n            \n            }\n            else return 0;\n        } else {\n            \n            if( (_amount * sellRate) / fixedUnit <= contractAddr.balance ) {\n                return sellRate;\n            }\n            else return 0;\n        }\n        \n    }\n\n    function getTokenBalance() public view returns(uint) {\n        \n        return token.balanceOf(contractAddr);\n        \n    }\n    \n    function getBalance() public view returns(uint) {\n        \n        return contractAddr.balance;\n    \n    }\n    \n\n    function exchange(bool isBuy, uint _amount, address payable from) public payable returns(uint)  {\n        \n        if(isBuy) {\n            \n            require(msg.value == _amount);\n            \n            uint exchangeAmount = _amount * fixedUnit / buyRate;\n            require(exchangeAmount <= token.balanceOf(contractAddr));\n            token.transfer(from, exchangeAmount);\n            return exchangeAmount;\n            \n        } \n        else {\n            \n            require( token.allowance( msg.sender, contractAddr ) == _amount );\n            token.transferFrom(msg.sender, contractAddr, _amount);\n            \n            uint exchangeAmount = _amount * sellRate / fixedUnit;\n            require(exchangeAmount <= contractAddr.balance);\n            \n            from.transfer(exchangeAmount);\n            return exchangeAmount;\n\n        }\n    }\n    \n}",
  "sourcePath": "/home/hussain/projects/swaptokens/contracts/Reserve.sol",
  "compiler": {
    "name": "solc",
    "version": "0.8.10+commit.fc410830.Emscripten.clang"
  },
  "schemaVersion": "3.4.3",
  "updatedAt": "2022-01-19T02:21:31.615Z",
  "devdoc": {
    "kind": "dev",
    "methods": {},
    "version": 1
  },
  "userdoc": {
    "kind": "user",
    "methods": {},
    "version": 1
  }
}